:4000000000400020110000008D0500008D05000010B500F0B7FF00F0D9FAC04670B5214C12232360182000F025FF9C2292011E4B1A601E4B1E4A1A60FE2109021D4A1160E0
:400040001D4A1A60802149001C4A11601C4A1A600131FF311B4A11601B4A1A6000251B4B1D6043231A4A13601A4A13601A4A13601A4A136040221A4B1A600132194B1A60CB
:400080000132194B1A6019490D2000F03BFE0D2000F018FE164B1D60002000F07BFF1123236070BD300010400C0301400000014043FF00800003014040FF008004030140DA
:4000C00041FF00800803014042FF00802800034024010140200101401C01014018010140140101400801014000010140291000000C02224010B572B6194A1A4B1A60EE227E
:40010000194B1A60194A1A4B1A60FE22194B1A600132194B1A60AE3A184B1A60184A194B1A600122184B1A600232184B1A602132174B1A60183A174B1A600D23164A13601A
:400140001649174A1160174A13601722164B1A602032164B1A60FFF761FF00F0FDF910BD00EE080800030240000402400FFF00000005024000020440180204400003044067
:40018000806D1800080304401803044000040440080404401804044000050440B60D03000805044018050440000604401806044010B5064C2378002B07D1054B002B02D025
:4001C000044800E000BF0123237010BD40010020000000002C440000084B10B5002B03D00749084800E000BF07480368002B00D110BD064B002BFBD09847F9E700000000E1
:40020000440100202C440000B00000200000000010B50F4B1B78052B02D900220C4B1A70012003F0DBFA0A4C23785B00E2189088084A9B5A3F229043184303F053FA237861
:4002400001332370012003F0E5F903F01FFA10BD5C0100206444000010B503F0FFF802F0DDFF012003F0F4F803F08CF810BDC04610B5002003F0B2FA80229200024B1A6081
:4002800003F0EEFA10BDC046000F2640F0B5474680B494B062B6A74803F066F8A64803F0E7F903F00FFAA54803F0CCFA03F0A2F903F042F903F020F8AF20400000F05AFD99
:4002C00003F0CCF802F0AAFF012000F0BFFCFA246400200000F04EFD002000F0B7FC200000F048FD00F0CCF9E4204000944A010000F04CFA00F0FEFE6A460021132000F0FD
:400300005DFA002002F0F4FE030A6A4613705070012002F0EDFE030A6A469370D07002F02FFF030A6A46137150710026002415E0270000250AE02900200002F003FFB31DC0
:400340006A46D0540136B6B20135ADB27B017D4AD3181B8B9D42EED30134A4B20C2CE7D901F046FA01F000FA0028FBD1F530FF3000F000FD01F000F900239846FF26FF27F7
:4003800006E03E000023984602E001239846FF2601F02EFA01F0E8F90028FBD100F0C4FE01F018F800F0EAFF002800D1B5E0012000F04CFC0025002409E0200000F0EEFF8E
:4003C000002802D00135EDB2E7B20134A4B20C2CF3D9012D00D098E0B742D9D003F0ACF802F08AFF03F024F83A006432564905A803F0F8FB0C2FC4D8BB00544AD3589F468B
:40040000534A918940234B4093813E0000239846BEE74F4A918980234B4093813E0000239846B5E74A4AD18980234B40D3813E0000239846ACE7464AD18940234B40D381E1
:400440003E0000239846A3E7414AD3898021C9014B40D3813E000023984699E73C4AD3893C494B40D3813E000023984690E7384A938938494B4093813E000023984687E75C
:40048000334A93898021C9014B4093813E00002398467DE72E4A9389802189014B4093813E000023984673E7294A9389802149014B4093813E000023984669E7244A9389CD
:4004C000802109014B4093813E00002398465FE71F4A93898021C9004B4093813E000023984655E71A49CA89402353401AB2802353401BB2802292005340013AFF3A5340DB
:40050000CB813E000023984642E7012D00D83FE74346002B00D138E73AE7FF2E00D137E7002000F093FB02F099FF02F077FEFF262EE7C0465902000011020000710200004A
:4005400010020020AC44000070440000304400005C0100200080FFFF3323074A1360074A13601122064B1A600E3A064B1A601D32054B1A607047C0460021024004210240A7
:40058000C002294030003040000E3F4010B503F0EBFA03680C2B00D1FEE7FEE710B50300084A1068C318084A9A1A802A02DC054A136005E003F0D8FA0C230360012040426D
:4005C00010BDC046B4000020E803002070B50F4E0F4D13E029686B68AC68002202E001C901C30432A242FAD1E868002202E0002102C304328242FAD11035013E002EE9D11E
:4006000003F0B8FAFFF742FEFEE7C046010000009449000010B500230AE0032B03D89A000849505800E008489900084A885001332B2BF2D9FFF75EFD80229205044B1A600D
:4006400010BDC046000000008D0500000000002008ED00E010B5072000F034FB10BDC04610B500F01DF810BD10B5044A1368802109060B431360FFF7EDFF10BD0000244099
:4006800010B5064B1B78002B04D1FFF7E9FF0122024B1A70FFF7E8FF10BDC0466C01002010B580225202204B1A60204A204B1A60204B214A13600024204A14602049214A6E
:4006C0001160214A1360214B1C60072000F004FB0321072000F028FB1D49072000F012FB1C4B1C601C4B1C605222FF321B4B1A601B4B1C601B4B1C601B4B1C60503AFF3A11
:400700001A4B1A701A4B1C701A4B1C801A4B1C801A4B1C801A4B1C8006321A4B1A700132194B1A7010BDC046000024400008004060002440070100800003244004032440F0
:400740001000FC00100324400002244004022440ED070000C80E2440880E2440480F2440080F2440C80F2440880F2440F8010020FC010020F6010020F0010020F201002021
:400780000C020020FD010020F401002070B506000D00141E0BD0072000F09EFA044B1C60044B1E80044B1D80072000F08BFA70BD0402002008020020FA01002070B50600E1
:4007C0000D00141E0BD0072000F086FA044B1C60044B1E80044B1D80072000F073FA70BD00020020FE0100200A02002070B5C84B1B68002B00D09847C64B1B78002B02D14F
:40080000C54B1C8801E0C54B1C88C54B1D68C54B1E680223FF331D4239D0C34A13685B005B081360C14A137820218B431370117810230B43DBB21370BD4B1B68DB060CD43E
:40084000B54B1A88BB4B1B889A420CD0B74A117808230B43DBB2137005E0B44A117802230B43DBB21370B44A1168B44B0B4013600023B34A1360AE4A13600222B14B1A7097
:40088000A94A1368802109060B431360BAE1F30602D50022AC4B1A600A23334200D1A3E0AA4B1B685B0759D5B30700D59CE0A84B1A68A44B1B78012B04D0002B21D0022B12
:4008C00015D044E0934B5B88002B0CD00121A14B1960904B59680919D2B20A7001345A88013A5A8036E002229A4B1A6032E00121984B1960D2B2874B5A800022914B1A70D7
:4009000028E084494B881B021A430B899A421AD20121904B19607F4B5B899A4202D29B1A9BB200E000237B494B800120854B18700B78002B03D17F4B1A8014000AE0864BA3
:400940001A80140006E00222824B1A6002E0002000F0D6F90422814B1A6045E0764B1B689B0441D5B3071DD57D4B1B681F2119407C4B1B685B060BD5794803681F210A009C
:400980001A40016880231B0219404B424B41D11A694A1068694B03401360012014E00821012011E05B4B5988083989B259800829F5D8002008E0574B5B681B19644A1268CF
:4009C000D2B21A70013401390029F4D1002808D1594A1368802109020B4313600022584B1A600C225D4B1A60B30700D4EAE0EB0629D54E4B1B789B0625D50023504A136033
:400A00004B4A1360434B1A78002A02D1494B1B8801E0514B1B889C4201D1022300E00A232B40D34041490878034320208343DBB20B700221434B1970002A02D1364B1C8028
:400A400001E0364B1C806B0600D4B9E0404B1B685B080421414A1160434A127893420DD12C4B424A12685A60414A12881A81414A12885A8100221A70012312E03E4A127873
:400A800093420DD1234B3D4A12685A603C4A12881A813C4A12885A8101221A70012300E00023002B0ED10122374B1A60374A1C4B1A60374A136810218B4313600222254B43
:400AC0001A607DE0194A117820230B43DBB21370104B1B78002B02D1164B1C8801E01E4B1C882C4B1B68DB065AD50A4A13891B1B5380294B1A68802149020A431A60196886
:400B0000264A0A401A601022094B1A604BE0C0467001002074010020F6010020F2010020400F2440000E244000002440FC010020880F2440F001002060002440FF5FFFFF2E
:400B4000C80F2440F8010020880E2440CC0F2440400324406C0024400C020020C00F2440080324404C0F2440FD0100200402002008020020FA010020F40100200002002022
:400B8000FE0100200A020020800E2440FF0F0000480F24406400244004022440FFFFFEFF04221D4B1A6001221C4B1A601C491D4B19601D490868102303430B601B4B1A6016
:400BC000184B1D601A4B1B685B071BD5194B5B88002B0BD0174B5A6812191278D2B216490A6001345A88013A5A8002E0FF22124B1A60124B1B681F221340082BE6D10F3ABB
:400C00000F4B1A600B4B1B78002B02D10D4B1C8001E00D4B1C8070BDC80F2440800E2440FF0F0000400F2440480F24406C002440000E24407401002040022440080224406F
:400C4000800F2440F6010020F201002004490A68D2B220239A4340011840104308607047000504400C4B1B689B001C22134018330A4A1268920803210A40D34008490868A5
:400C8000084A02400A60084A944663441B78DBB2064A13607047C046080F03402800034000002240FFFFFFBF4DF3FF0F0C0F0340034B18688023DB05184000D001207047E3
:400CC000000022401F2318401E3B8340014A13607047C04600E100E01F2318401E3B8340014A13607047C04680E100E01F2318401E3B8340014A13607047C04680E200E0BB
:400D000001BE704770B504000D001B2802D90020FFF7F6FF1034A40080239B059C4664442068256070BDC04670B504000E00032902D90020FFF7E4FF1B2C02D90020FFF77A
:400D4000DFFF03252540ED00063502F09AFDA408A400074B9C46644421680323AB4099430B003100A9401943216002F08EFD70BD00E400E010B5040006E0084B586802F091
:400D800077FD074B9C46644480231B029C42F4D8024B9868604302F06BFD10BDB80000200080FFFF70B582B000F0E2F800284DD002F067FD0500264B1A6892001C231A402D
:400DC0001832244B1B689B0803210B40DA400021214B1960214C2168214B0B4021494A438021C9018C466244D20B013A5205520D1343A0225203134323601B4B1B6801936D
:400E0000302002F045FD194A13688021C9050B4313602668164B1E40002407E00120FFF7A9FF1034A30533430C4A1360EE2CF5D90120FFF79FFFFF239B051E43074B1E604E
:400E4000019A094B1A60280002F01FFD02B070BD080F0340280003400C0F03400800224000F800C040420F003000104000002240FFFF3FC0F0B583B0040018280BD01C2804
:400E800009D0202807D0242805D0282803D02C2801D0302849D102F0F4FC0190FFF708FF002803D0FFF7DEFE012600E00026214A136807218B4313601F4BE3181B78DBB221
:400EC0001E4A13601E4A13688B4313601D4803687F22934319001C4BE3181B7813400B430360322002F0C4FC182C16D9114F3B680725AB431A0023001C3B9B082B4013434E
:400F00003B60322002F0B4FC3A68AA432300183B9B082C001C4014433C60012E01D1FFF741FF019802F0B1FC02E00020FFF7E8FE03B0F0BD080F03404DF3FF0F0C0F03404C
:400F4000100F0340180F034034F3FF0F10B5034B1B7B584302F08CFC10BDC046B8000020024B1868800F80077047C0460C022240034B1B68002B01DA012000E00020704748
:400F800000002240014A024B1A6070476588EDAC3800034010B50400FFF7E2FFA0421AD0144A136803218B431360134B1B689B0F01D17C2001E086204000FFF7C7FF02F0ED
:400FC00060FC0D4A13689B009B08A40FA4071C43146002F05AFC074B1B6803229343064A1268920F01D1023200E001221343014A136010BD140222400C02224010B5040036
:4010000002F03FFC054B1C4005490B68054A134023430B600B6802F038FC10BD0404040010022240FBFBFBFF10B5244B1B685B0715D5234B1B685B070ED5224B5969042041
:4010400001401F4C22688A4322605A6982435A619B68002B00D098470420FFF7CFFF174B1B685B0518D5164B1B685B0510D5154B59698022D2001140114802688A430260AF
:401080005969114A0A405A61DB68002B00D098478020C000FFF7B2FF084B1B685B030CD5074B1B685B0304D5064B1B69002B00D098478020C002FFF7A1FF10BD10022240E1
:4010C000CC00002080010020FFFBFFFF10B5084B1B78002B06D100F00FF900F071F90122034B1A7000F04EF800F0DEFC10BDC0469801002010B5FFF7E9FF041E02D100F05D
:401100005FFC0400002C02D100F072FB0400002C03D100F029FB0028FBD100F0E7F900F02BFA200010BDC04670B5144E002400251FE01F232B4001229A4011006A091048BB
:40114000043293001A580A40C3185B6813420ED0300000F051F804003100280000F0A2F8002C04D02100280001F0A2FF0624203601350C2DDDD9200070BDC046AC44000006
:401180001002002070B500230CE013489A1D920000211150191D8A00012149421150821851600133002BF0D00C4C0D2310E06668A27E094B5B1900211977012A06D1206901
:4011C000002803D0717A228B02F003FD20342B005D1E002BEBD170BD10020020AC44000030B50B884A889C1A00250D818079844200DD0C8130BDC046F0B583B006008468A1
:4012000043680093837E01930025002712E0019A2100009800F0C6F9002805D0002F03D180231B062B431F0021000098FFF7D8FF0C340135338B9D42E9D3380003B0F0BD5C
:40124000F0B50A8B8D684F680B69012125E00C00044003D1BE883A7AB21802E0BA883E7A921B2E89B24201D3002200E00A00A24202D01E78013E1E70A24202D01C78002C62
:4012800007D188431043002A01D17A7A00E001221A7049000C3501336246541EA446002AD5D1F0BD70B504008A7E124B1B181D7F012A04D12800FFF7C3FF050002E0002038
:4012C000FFF71EFD0B4B1B191D7763091F2214401E3AA240002D06D1064906339B0058589043585005E0034906339B00585802435A5070BD1002002070B51A4CE42252004C
:401300000021200002F065FC174B238080235B006380164BA38084235B0063850122DC3BE254134BE38520003030CF321149403102F046FC104C2100103120340D230CE0E1
:40134000A268238B04E00B78D37201310C320300581E002BF7D120342B005D1E002BEFD170BDC0461002002096700000B80B0000D45600000C4600008C440000012300208A
:4013800005E0931D9B0004495B58184313005A1E002BF6D17047C046100200200C280AD81F23034001229A40430906339B0003495858104000E000207047C0461002002043
:4013C0000023024AD380024A1360704710020020D001002070B5002500263F4B1B68032B06D102F04EFA01223C4BDA8002F04DFA3A4BDC88E4B2062C23D8A300384AD3589D
:401400009F460122344B1A6001261AE00022324B1A60012615E0FFF76DFE00222E4B1A60012501260DE002222B4B1A60012608E00022294B1A60012603E00322264B1A6058
:401440000026002E0FD002F01CFA244BDB88DBB29C4205D1214AD188224B0B439BB2D38002F013FA00261C4B1B68012BB5D0022B2FD11A4AC223FF33D35CDBB2E121490090
:40148000525CD2B20C2B24D8590117484118098B8A421ED21149088980B2E2246400095B89B2884215D05B010F49CB189C6853009A189300E41802F0E4F9084B1A8992B258
:4014C000E22149005A52228892B202315A5202F0DCF9280070BDC046D001002010020020D84800000080FFFFAC4400007047C046FF231940062902D0831800219971530002
:40150000195AC3185980C94399808218002393727047C04670B506000D00012305E0220029003000FFF7E4FF23005C1E002BF6D170BDC04610B54001054B1B184A0051184D
:4015400088009A6894466044997EFFF7E3FF10BDAC44000070B505004301064AD3181B8B04E021002800FFF7E5FF23005C1E002BF7D170BDAC44000010B50D2303E02000BC
:40158000FFF7E8FF23005C1E002BF8D110BDC0469840504380235B009A1A51434018000A7047C046F0B54F4680B482B005000E000192002401234EE07B00F3189A885988D5
:4015C000CB439BB29A4243D17B00985B814206D8431A9946F21900239372012202E00B1A99460022002A11D1EB7999450ED9F3199B7AAA7A934205D33A0001993000FFF7D6
:4016000077FF1FE0F219013393721BE0AB79994504D9EB79994515D2002A13D1FF23019A1340062B0ED00902F31999469B79194308230122FFF7ACFF020A7B00F3185A8000
:401640004B4698717B00F3185A88D2439A8001E0802424063B005F1E002BADD1200002B004BC9146F0BDC04670B504000D009F2808D91B4B994205D91A49280002F06EFA2B
:40168000002921D09F2C09D9FF235B009D4205D91549280002F062FA002917D09F2C07D97E2D05D97F21280002F058FA00290FD09F2C0FD93E2D0FD93F21280002F04EFA35
:4016C00000290BD000200AE0042008E0032006E0022004E0002002E0002000E0012070BDFE030000FF030000FF01000010B54B1EDBB2032B01D8102300E00023002911D06C
:40170000002B11D0642253430100180002F0A0F9002301E0013340000928FBD90A2804D9013B02E0002300E00023D8B210BDC04610B5094C2268094B13402360084A136815
:4017400001218B43136000F0FDFC2268054B1340236000F0B3FA10BD00040240FFF0FFFFA8022940FF8FFFFF024BDB68802018407047C0461002002010B5114BDB68DB0378
:4017800012D40C2812D81F23034001229A40110042090B4C043293001A590A40E3185B68134205D1012404E0112402E0012400E00024002C01D100F0D7FC200010BDC04684
:4017C0001002002010B5084BDB68DB0307D4074B1B78012B05D100F05DFC002003E0112001E00120404210BD10020020D401002010B50F4BDB681B0618D400240120404291
:4018000011E02000FFF7B8FF00280BD10B2C03D80122084B5A7002E00022064B5A70FFF7D1FF04E001340C2CEBD900E0112010BD10020020D401002010B50400144B1B78DA
:40184000834223D0012B02D1FFF772FF07E0022B05D0042B03D0032B01D101F061FC012C05D100F053FA0122094B1A700EE0022C0CD0042C0AD0032C05D101F05BFC03225C
:40188000034B1A7002E00022014B1A7010BDC046D401002030B500200D4B16E019680A685C69A2430A605C6822689D7F0721A9408A4311000622AA400A432260D9680A6867
:4018C0009C69A2430A60203301300C28E6D930BD3847000010B51B4A93780133DBB293709078C0B2FFF748FF041E09D1154B9B780C2B02D10022134B5A70FFF763FF1EE0E8
:40190000104B9B780C2B11D10F4B1A8901321A81DA6880218A43DA60DA681202120ADA60DA6804061443DC60002408E0064AD3681B021B0AD360D16803060B43D360002CE5
:40194000C9D110BDD401002010020020074A084B1A6001380002074B1860054B1B68002BFBDB054A024B1A607047C04640000040000001400003014040FF008070B5040022
:401980001F23034001229A40110042090B48043293001A580A40C3185B68134201D0002500E01125002D07D14621200000F0A4FC0500200001F06CFB280070BD1002002052
:4019C00070B50024002504E02000FFF7D7FF054301340C2CF8D9280070BDC04670B5002510E06B01094A9E58002404E06001301800F094FB01346B01044AD3181B7E9C4258
:401A0000F4D301350C2DECD970BDC046AC4400004001024B1818436898897047AC4400000203121A01238B40013B9A4205D90202101A834203D3052002E0062000E000204B
:401A4000C0B2704770B50E00FFF7E2FF05007188002200F021FA01002800FFF705FE041E04D168007188FFF7DBFF040021002800FFF73CFE0001C0B22043B07370BDC04615
:401A800010B500240AE06301064AD31859682000FFF7D8FF200001F0FBFA01340C2CF2D910BDC046AC44000010B5FFF7E9FFFFF7F1FE0020FFF7C0FE002010BD70B501F0A6
:401AC000E0FE134A1168134B0B40136001F0DDFE01F0D7FE104A13680C218B43136001F0D4FE01F0CEFE0D4C23680D4D2B40D82212011343236001F0C8FE0120FFF726FA44
:401B000001F0BFFE23681D40256001F0BEFE70BD00040240FFF0FDBF00040440080404403FF0FFFF034A044B11680B400002184310607047D0000020FFFCFFFF044A116866
:401B4000044B0B40E021C9010B4313607047C04600040240FF0FFFFFF0B5002318E00E4E5900C818C200B21855682868977D0724BC40A0432860C918C80080590168147DE0
:401B80000F22A24091430522A2400A4302600133002BE4D0F0BDC0462047000001390843014B18607047C0460002294010B5104B1B68702293431C002C230E4AD15C0E4897
:401BC00001F046FF0D4B984204D820232343084A13600BE0084B984204D830232343044A136003E040232343014A136010BDC046D00000201002002000366E01001BB700EF
:401C0000034A044B1A60C1225204034B1A60704700008301C0012940C4012940074B1A687F210A40064802431A60064A13680B40802109040B4313607047C046C0012940C3
:401C400000008301C4012940064A136806490B431360064A064B1A60C1225204054B1A607047C046A80229400100001000008301C0012940C401294070B50E0015004388E9
:401C800001249C40013CA3001B195800642101F0DFFE013083199C4200D22300B04201D8301A00E00020A84203D8AB4203D2062002E0062000E0002070BDC04630B50022C0
:401CC0001EE0114D51008818C3005C592068EB181D7D0F21A940884320605C6821689D7D0720A840814308000621A94001432160D86801685C7D0123A34099430160013286
:401D0000002ADED030BDC04620470000F8B5FFF765FEFFF7D3FEFFF71FFFFFF70FFFC02212032E4B1A602E4A11682E4E3143116000242D4B1C602D4B1C6011212C4B196022
:401D40002C4B1C602C4F3C602C4B1C602C4B9C461C602C4D2C602C4B1C602C4908682C4B0340C020C00003430B602A49086880235B01184308600120274B186088235B02F1
:401D80000B6063461C6013683343136080235B04224A13602249234A116002223A602249224A11602B60FFF72BFF2C23204AD05CFFF7CCFD0020FFF7B5FEFFF7F7FE1D4B94
:401DC0001B681D4A13431D4A13600F221C4B1A601C4B1C60053A1C4B1A60F8BD04022940A802294001000010F4002940B4022940C002294020032940840129408802294058
:401E000080022940840229408001294000040240FFF0FFFF94022940A0022940A4022940410D000088012940000003019002294010020020D0000020001000800000294038
:401E400000032940F00129401003294070B5050001F017FD0C490B687F26B3430B4A14782D19EA7A13430B6001F00FFD01F009FD07490B68B343074A12681419E27A1343EB
:401E80000B6001F002FD70BDC0012940F4480000C4012940D803002010B503001400012088400138002B02D0190001F0D1FD053C012C00D84008002800D1013010BDC046AD
:401EC00010B50C4B1B785B010B4AD3185B6899899B7B18045A1F012A02D8802292041043053BDBB2012B02D8490800D10131FFF755FE10BDD6010020AC44000010B503008B
:401F0000808959889A7BFFF7C7FF0004000C014B186010BD1403294010B51020FEF7DCFE0121354B19600022344B1A603448354B18603548354B18600620354B18600B3089
:401F4000344B186034480468344B2340C024E40123430360324B19600631FF31314B1960314B1A600332314B1A60E123DB0100E0013B2C4A1268520701D4002BF8D1002B62
:401F800002D10822294B1A6083225200254B1A601020FEF7ABFE1020FEF794FE10221D4B1A600022174B1A60214A184B1A60C022D200174B1A60FFF7C1FD5022184B1A60E3
:401FC00001230E4A13600C4A13601A4A1368802149040B4313600222134B1A60E123DB0100E0013B144A1268520701D0002BF8D1124A0E4B1A6010BD800129408C012940D1
:4020000001010100B002294010110000B4022940880229408002294000040240FF0FFFFFF0012940F0002940F8002940400329401000010000022940000029400103000069
:4020400010B5054AD36805490B43D3600A20FEF77DFFFFF761FF10BD100200208000010070B50400857F067F01F00BFC23681B680F22B24093431A000423B34013436668C8
:4020800032680721A9408A4332602268136001F0FCFB70BD70B5134E3378134D5B01EB185868124C0023237033785B01EB1899682378DBB25A00D3189A008A180C4B1A60BB
:4020C000FFF7C4FE33785B015B59207840011818084B1860FFF7C4FF074801F091F8FFF7AFFF70BDD6010020AC440000D7010020D8030020DC030020153A000010B5400118
:40210000044BC05849014018034B1860FFF7A8FF10BDC046AC440000DC03002030B5047F857F41680B680722AA4093430B6001680B680F22A24093431A000523A340134355
:402140000B6030BD10B5064B1B78012B06D1054B1868FFF7E3FF0022014B1A7010BDC046D8010020DC03002070B5104E4301F3185D68C0B20E4C20700120FFF75DFBFFF798
:40218000E1FF23785B019A590A4B1A600A4BDA687F218A43DA602178DA680A43DA602800FFF7ACFEFFF78CFE70BDC046AC440000D6010020DC0300201002002070B54301EA
:4021C000114AD3185D68C9B2104C217099682378DBB25A00D3189A008A180D4B1A60FFF7C3FF2800FFF732FE20780A4B40011A68944660441860FFF733FF0122064B1A701E
:40220000064800F0FDFF70BDAC440000D7010020D8030020DC030020D8010020E9390000F0B5474680B482B007000E0090462B4A13785B012A49CB185B68019300233370E8
:402240001078C0B2274B1978C9B2FFF7B7FFFFF7E5FC00248025BC4202D23378AB4333706D0833782B4333700198FFF7EFFDFFF7E7FEE123DB0100E0013B1B4AD268120652
:4022800001D5002BF8D1194B1B681C88002DE2D1124B1B785B01124A9858124B1B785B01C018134B1860FFF739FF0022114B1A70FFF7CAFC220039000198FFF7DDFC434619
:4022C0001A7833789A4201D242461370074B1B683278DA7202B004BC9046F0BDD6010020AC440000D701002010020020D8030020DC030020D8010020F0B54F4680B484B081
:40230000040089464301364AD3185F68012003AB18707B88984001384843642101F098FB0190E2B22F4B1A702F4800F069FF3E000B3600222D4B1A7000250AE003AA3100CD
:402340000198FFF76DFF0543284A13780133DBB213706301224AD318DA7E244B1B78DBB29A42EBD803AB1B7801335B08FB7200221E4B1A7022E06301194AD3189E681B4B1E
:402380001B78DBB25A00D3189A00B618184B1E60F37AF87A83420AD31B1AD8B2F0724B4658436330642101F053FBF07201E00023F3720E4A13780133DBB213706301084AA2
:4023C000D318DA7E094B1B78DBB29A42D3D80022064B1A70280004B004BC9146F0BDC046AC440000D6010020E9390000D7010020D803002070B588B004000D002022104977
:40240000684601F0DDFB002013E0050B227813096B400F252B405B006E469B5B00014340180B42402A405200905B1B01584001340D00691E002DE8D180B208B070BDC046AD
:4024400018490000F0B5002318E00E4E5900C818C200B21855682868977D0724BC40A0432860C918C80080590168147D0F22A24091430522A2400A4302600133002BE4D0F9
:40248000F0BDC04620470000044A1168044B0B40E021C9010B4313607047C04600040240FF0FFFFF30B500221EE0114D51008818C3005C592068EB181D7D0F21A940884331
:4024C00020605C6821689D7D0720A840814308000621A94001432160D86801685C7D0123A340994301600132002ADED030BDC04620470000832252000A4B1A600A4B1B687C
:402500001B041B0C094A934200D913009BB2084A1380084AD168084B0B40D3600022074B1A607047F0002940D0002940FF030000DA010020100200207FFFFEFF88022940DF
:4025400001380005000D014B1860704700022940044B9B78062B01D1053B00E00723024A13607047DA010020140329407F231840034B1843034B18600022034B1A60704780
:4025800000008301C0012940C401294082B00022244B1A60244A254B1A60254A254B1A600622254B1A600B32244B1A6080225204234B1A60234B9B78032B07D1224A1168CD
:4025C000224B0B40C021C9010B4313600122204B1A60204B0632FF321A601B6800221E4B1A6003321D4B1A609623DB000193019A03E0019B013B0193019A164B1B685B07CF
:4026000001D4002AF5D1019B002B02D10822134B1A600022054B1A60114A064B1A6002B07047C0468C01294001010100B002294010110000B4022940880229408002294086
:4026400084022940DA01002000040240FF0FFFFFF0012940F0002940F8002940400329401000030082B00190019A03E0019B013B0193019A044B1B7B5BB2002B01DA002AE1
:40268000F4D1019B02B070471002002070B505000C0001F0F6F82A68136869698B43297F8C401C43146001F0F0F870BD70B50600054D002405E031002800FFF7E7FF2035FF
:4026C00001340C2CF7D970BD3847000010B501F0D8F80D4A11680D4B0B40136001F0D5F80B4B9B78032B0DD101F0CBF8064A1168084B0B40136001F0C8F8FFF7D3FE00202C
:40270000FFF7D4FF10BDC04600040240FFF0FFFFDA010020FF8FFFFF70B505000C0001F0B0F869680B68AD7F0722AA409343AC401C430C6001F0A9F870BDC04670B5060074
:40274000054D002405E031002800FFF7E5FF203501340C2CF7D970BD3847000070B543011E4AD3185B695B0709D540018458890061180C8864011A4BE4188E7805E0400128
:40278000164BC458490164180126002523E0154B9B78032B08D100212000FFF7BDFF05212000FFF773FF14E0042B08D100212000FFF76CFF06212000FFF7AEFF09E0052BCB
:4027C00007D100212000FFF7A7FF04212000FFF75DFF20340135AE42D9D870BDAC44000038470000DA01002070B500250DE021002800FFF7B3FF013400E000246B01044AB0
:40280000D3181B7E9C42F2D301350C2DF5D970BDAC44000010B504000F4BDB78834219D002280CD002D8012805D011E003280AD004280BD00CE00620FFF780FF08E0002089
:40284000FFF77CFF04E0FFF7CFFF01E0FFF7CCFF014BDC7010BDC046DA01002070B54301114AD3185B695B0709D540018458890061180C8864010D4BE4188E7805E04001EC
:40288000094BC458490164180126002509E000212000FFF741FF04212000FFF7F7FE20340135AE42F3D870BDAC4400003847000070B505000C0000F0E4FFEA681368A9693D
:4028C0008B43697F8C401C43146000F0DEFF70BD70B50600054D002405E031002800FFF7E7FF203501340C2CF7D970BD3847000010B580225201114B1A60114B1B5C002B02
:4029000002D0012B0DD018E000F0BBFF0D4A11680D4B0B408021C9000B43136000F0B5FF0BE000F0AEFF074A1168084B0B408021C9010B43136000F0A8FF10BDA00229404D
:402940001C47000000040240FFF0FFFFFF0FFFFFF0B5474680B4002424E000F092FF144F66003319DD007D1969680B689846AA7D9446072263469A40434693430B6000F095
:4029800084FF00F07EFF3619F300D9590B682A6993431A002D7D0423AB4013430B6000F074FF0134002CD8D004BC9046F0BDC0462047000010B50120FEF7C8FF0322214BF1
:4029C0001A60214A214B1A601720FEF7BFFA204A204B1A601D22204B1A6000231F4A13601F4A13601F4A13601F4A136001211F4A116001311E4A1160802252051D490A6051
:402A0000802040031C4908601C490B60882040021B4908601B490B601B490B60882149041A4801601A4801601A490A601A491B4A11601B4A13601B491B4A11601B4A136056
:402A400010BDC046000229400010008500002940A2000004C401294000032940C00129408C012940C002294004022940100329401403294080022940840229408802294057
:402A800094022940A0022940A4022940B0022940B4022940A80229404109000088012940900229400100008080012940F800294070B50022364B1A60364B1B5C002B02D076
:402AC000012B35D063E000F0DCFE334C2368334D2B40236000F0D9FE2D4A1168304B0B40136000F0CEFE23681D40256000F0CDFE00F0C7FE2B4A136804218B43136000F051
:402B0000C4FE00F0BEFE284C2368284D2B40C02252001343236000F0B8FE0A20FEF716FA00F0AFFE23681D40256000F0AEFE2EE000F0A7FE184C23681D4D2B40236000F0E6
:402B4000A4FE00F09EFE23681D40256000F09DFE00F097FE134A136808218B43136000F094FE00F08EFE104C2368124D2B40C02212011343236000F088FE0A20FEF7E6F977
:402B800000F07FFE23681D40256000F07EFE70BDA00229401C47000000040240FFF0FFFFFFFFEFFF00040440080404403FFEFFFFFF0FFFFFFFF1FFFF10B5FEF77FFF4E4B77
:402BC0009B78032B03D1FFF73DFCFFF75DFC00234A4A13604A4A136011214A4A11604A4A13604A4A1360C021C900494A1160494A1360494A13600133484A13600F21484A17
:402C00001160484A136000F03CFE474A1368802149010B43136000F038FE374B9B78062B0ED000F02EFE414A1168414B0B40C021C9000B43136000F028FE01223D4B1A60D5
:402C40002D4B9B78032B03D188225202364B1A6080225205384B1A6080225204374B1A60374A384B1A600222284B1A60364A374B1A60214B9B78062B02D00120FEF766FEDD
:402C80001D4B9B78032B06D1314B1968314A0A401A601A681A602E4B1A6870218A431A60196830220A431A601B682B4A13432B4A13601720FEF74AF90F4B9B78062B07D0D5
:402CC0000A22274B1A60C0221203264B1A6005E00022234B1A60244A224B1A600020FFF745FC054B9B78062B02D08020FFF728FC1E4800F085FA10BDDA010020F400294025
:402D0000B4022940C002294020032940840129408802294080022940840229408001294000032940F00129409402294000040240FFF0FFFFA0022940A8022940A4022940F3
:402D4000410D0000880129400000030190022940D4000020FFFCFFFF001000800000294010032940040229400A000C00F524000010B50400194B9B7883422DD0032B02D012
:402D8000052B03D004E0FFF7A1FC01E0FFF79EFC124B9C70072C1FD8A400114B1B599F460220FFF737FD17E00120FFF733FD13E0FFF702FF0320FFF72DFD0DE0FFF7FCFEA8
:402DC0000420FFF727FD07E0FFF7F6FE0220FFF721FD01E0FFF7EEFD10BDC046DA010020F848000000B583B0294B832252001A601B681020FDF77AFF1020FDF763FF102219
:402E0000244B1A60244B9B78032B06D1C022D200224B1A60FFF738FB04E000231F4A13601C4A136050221E4B1A601B4B9B78062B08D11C4A1C4B1A6000231C4A13601C4A21
:402E4000136002E00122184B1A60134B9B78032B03D10122174B1A6002E00022154B1A600222154B1A609623DB000193019A03E0019B013B0193019A104B1B685B0701D0F1
:402E8000002AF5D10E4A0F4B1A6003B000BDC046F000294080022940DA01002088022940F0012940010200008C012940B0022940B402294080012940F8002940000029400D
:402EC000010300004003294010B51020FDF704FF0122074B1A60182000F0CAFC054B9B78062B01D0FFF752FBFFF77CFF10BDC04680012940DA010020F0B5474680B42B4BAC
:402F00009B78052B02D10023984601E0012398460022264B1A80FFF71BFB8026002431E0224B1B889BB2224A934200D8B4437608344300D101340B2C08D843465A1C802362
:402F4000D340032B02D99046402640242000FFF70DFB80252F004346DF403800FFF7F0FA3900144800F074FD0004000C124B1860124BDA681543DD60FFF7A6FFE1208001B7
:402F8000FFF770FB002ECBD10D486043094900F05FFD064B1B885843BB21434699404B08C01800F055FD04BC9046F0BDDA010020CB020000FF030000140329401002002057
:402FC0006A030000F8B506000F004301094AD318DD696D18FFF742FCFFF78EFF040039003000FFF7BBFBFF2C00D9FF242C702000F8BDC046AC44000010B50C00FEF7A6FC8F
:403000002000FFF7B3FA064AD16880230B43D360FFF75AFFE1208001FFF724FB10BDC0461002002070B50400FFF762FC17210620FFF7E2FF134B1B889BB2C02292009342EC
:4030400006D95C211820FFF7D7FF5C25182601E0172506262000FFF72BFD28007043094B1B885843182100F0F3FC96231B015843054900F0EDFCCC346400044B1C19208105
:4030800070BDC046DA010020B70A00001002002010B50C2808D84001044B18184468A01C0E21FFF7A7F9208010BDC046AC44000030B543091F2404400122A2400B4C04337B
:4030C0009B00E3185D6895435D60CE235B00E358DA060AD42200102423438D34FF341351AE23FF33D0540133D15430BD1002002010B5040001280FD80320FEF79DFB062039
:40310000FFF736FE8020C000FFF71AFAFFF720FA2000FFF787FF01E08020C00510BDC04610B50020FFF724FE0022014BDA7010BDDA01002010B50020FFF7B8FA0020FFF716
:40314000C7FB10BD70B504000D000C2810D843010A4AD3181B8B99420DD20320FEF76CFB0320FFF705FE29002000FFF72BFF04E08020C00501E08020C00570BDAC440000DB
:4031800010B50320FEF758FB0520FFF7F1FDFFF7DFFBFFF7B1FE0400FFF784F9FF2C00D9FF24D3235B00024AD452200010BDC046100200208023014AD050704700000020F6
:4031C00010B5040000F05DFB044A1368C0218B43A4011C43146000F058FB10BD10E400E080225202014B1A607047C04600E100E080225202014B1A607047C04680E100E0F6
:4032000010B50400FFF7F4FF2000FFF7D3FF0320FFF7D6FFFFF7E4FF10BDC04610B500F030FB044A136808218B43136000F02DFB10BDC046000020400004000C014B186028
:403240007047C046C80120400004000C014B18607047C046D40120400004000C014B18607047C046CC01204070B504000D0000F008FBAC40024B1C6000F007FB70BDC046E1
:403280000800204010B500F0FCFA064A116808230B43136000F0F9FA18210820FFF7E4FF10BDC04600002040014B18607047C046F801204010B50D4C8223DB04236023686C
:4032C00023600020FFF7B8FF236823600C22084B1A600120FFF7E8FF3122064B1A601420FFF7B2FF0E20FFF7B7FF10BDC0012040E4012040E801204010B5064B1B78002B54
:4033000004D1FFF7D7FF0122024B1A70FFF7BAFF10BDC046DE0100208823014AD05070470000002010B5040000F0ABFA044A1168044B0B40A4051C43146000F0A6FA10BDEC
:4033400010E400E0FFFF3FFF8022D202014B1A607047C04600E100E08022D202014B1A607047C04680E100E010B50400FFF7F4FF2000FFF7D1FF0320FFF7D4FFFFF7E4FFEC
:4033800010BDC0468022D202014B1A607047C04680E200E00004000C014B18607047C046480120400004000C014B18607047C0465401204070B504000D0000F062FAAC4011
:4033C000024B1C6000F061FA70BDC0460800204010B500F056FA064A116802230B43136000F053FA18210220FFF7E4FF10BDC04600002040014B18607047C046780120406C
:4034000010B5084A084B1A600C22084B1A600120FFF7F0FFAF208000FFF7C4FF0020FFF7B9FF10BD00070402400120406401204010B5064B1B78002B04D1FFF7E1FF0122EF
:40344000024B1A70FFF7C4FF10BDC046DF010020014B18607047C0467001204010B500F010FA044A136804218B43136000F00DFA10BDC046000020400004000C014B1860AB
:403480007047C046880120400004000C014B18607047C046940120400004000C014B18607047C0468C01204070B504000D0000F0E8F9AC40024B1C6000F0E7F970BDC046A3
:4034C0000800204010B500F0DCF9064A116804230B43136000F0D9F918210420FFF7E4FF10BDC04600002040014B18607047C046B801204010B50D4C8023DB0423602368B6
:4035000023600020FFF7B8FF236823600C22084B1A600120FFF7E8FF3122064B1A60C820FFF7B2FF6420FFF7B7FF10BD80012040A4012040A801204010B5064B1B78002BC7
:4035400004D1FFF7D7FF0122024B1A70FFF7BAFF10BDC046E00100200004000C014B18607047C046080120400004000C014B18607047C0461401204070B504000D0000F007
:4035800080F9AC40024B1C6000F07FF970BDC0460800204010B500F074F9064A116801230B43136000F071F918210120FFF7E4FF10BDC04600002040014B18607047C046C9
:4035C0003801204010B580229204084B1A600C22074B1A600120FFF7EFFFFA204000FFF7C3FF0020FFF7B8FF10BDC046000120402401204010B5064B1B78002B04D1FFF732
:40360000E1FF0122024B1A70FFF7C4FF10BDC046E1010020014B18607047C046300120408423014AD05070470000002010B5040000F027F9044A1168044B0B40A4031C43E7
:40364000146000F022F910BD10E400E0FF3FFFFF80229202014B1A607047C04600E100E080229202014B1A607047C04680E100E010B50400FFF7F4FF2000FFF7D1FF0320BF
:40368000FFF7D4FFFFF7E4FF10BDC04680229202014B1A607047C04680E200E010B500F02FF810BD10B500F051F810BD10B5044A1368802109060B431360FFF7EFFF10BD76
:4036C0000000264010B5064B1B78002B04D1FFF7E9FF0122024B1A70FFF7E8FF10BDC046E2010020044B1B681F221340082BF9D0024B18607047C046080226404002264034
:40370000074B1A68F02109010A431A601A68F02109020A431A60034B1A88034B1A60704700050240E4010020880F264005490A68054B1A408006C0231B05184010430860B0
:403740007047C04620002640FFFFFFF310B5134A134B1A60134A144B1A60144B144A13600721144A1160144A13600023134A1360134A1360134A1360134A1360FA31FF3130
:40378000124A1160124A1360124A13601268124B1A800020FFF7CAFF10BDC0460F0000010000264001000080200026400F01008000032640040326400002264004022640C4
:4037C000880E2640C80E2640480F2640080F2640C80F2640880F2640E401002004490A68D2B202239A434000184010430860704700050440014B58667047C0460000002099
:4038000010B5040000F03DF8044A1168044B0B40A4031C43146000F038F810BD08E400E0FF3FFFFF80229200014B1A607047C04600E100E080229200014B1A607047C0469B
:4038400080E100E010B50400FFF7F4FF2000FFF7D1FF0320FFF7D4FFFFF7E4FF10BDC04680229200014B1A607047C04680E200E00230800803D001300238FCD1C046C0460D
:403880007047EFF3108072B6704780F31088704770B50400FFF7F5FF0500102C05D8104A136803218B43136016E0202C07D80C490B6803229343023A13430B600CE0302CAA
:4038C00007D807490B6803229343013A13430B6002E00020FDF714FA2800FFF7D6FF70BD30001040104B1B785B01104AD3185B680F4A11680A04120C588801238340013B38
:403900009A4206D20B4B1A680B4B1B785B00D15205E0084A1168084A127852008B520022064B1A607047C046D6010020AC440000D0002940D8030020F448000088022940E5
:4039400070B5224B1A78224952018A1850681B785B01CB181A7E013A1E4B1B78DBB29A421CD91C4C23780133DBB22370174D2B785B01CB1899682378DBB25A00D3189A0067
:403980008A18154B1A60FEF761FA2878C0B22178C9B2FEF7B3FBFEF7BFFA16E000220D4B1A700E4AD1680E4B0B40D3600D4B1B78012B02D1FDF78EFF07E0084BDA688021DA
:4039C0008A43DA601A8901321A8170BDD6010020AC440000D7010020D803002010020020FFFFFEFFD501002010B583225200064B1A60FFF777FF054B1A8901321A81D96830
:403A0000034A0A40DA6010BDF0002940100200207FFFFEFF10B50A4B1B785B01094A9B58094A147864011C1983225200074B1A60FFF758FF2000FEF771FBFFF781FF10BD46
:403A4000D6010020AC440000D7010020F0002940002243088B4274D303098B425FD3030A8B4244D3030B8B4228D3030C8B420DD3FF22090212BA030C8B4202D31212090227
:403A800065D0030B8B4219D300E0090AC30B8B4201D3CB03C01A5241830B8B4201D38B03C01A5241430B8B4201D34B03C01A5241030B8B4201D30B03C01A5241C30A8B42D5
:403AC00001D3CB02C01A5241830A8B4201D38B02C01A5241430A8B4201D34B02C01A5241030A8B4201D30B02C01A5241CDD2C3098B4201D3CB01C01A524183098B4201D34E
:403B00008B01C01A524143098B4201D34B01C01A524103098B4201D30B01C01A5241C3088B4201D3CB00C01A524183088B4201D38B00C01A524143088B4201D34B00C01AE7
:403B40005241411A00D20146524110467047FFE701B5002000F006F802BDC0460029F7D076E770477047C046014B18687047C046380100200E4B70B500251E000D4CE41A74
:403B8000A410A54204D0AB00F35898470135F8E700F0EEFE084B00251E00084CE41AA410A54204D0AB00F35898470135F8E770BD7C4900007C4900007C4900008449000046
:403BC000002310B59A4203D0CC5CC4540133F9E710BD03008218934202D019700133FAE7704700000EB410B59DB002A9029008610B48822488604861012040421FABC881BA
:403C0000084804CBA400006801938C8100F06EF80023029A13701DB010BC08BC03B01847FFFFFF7F38010020F0B58E6885B007000C00039201939E4243D890238A89DB0034
:403C40001A423ED003250969236801985B1A029363695D43EB0F5D19029B6D1001331B18AB4200D91D00530510D52900380000F037FB061E14D0029A2169FFF7A1FFA28923
:403C8000194B134080221343A38112E02A00380000F086FB061E0CD12169380000F0D4FA0C23402201203B60A38940421343A38117E0029B2661F61826606561019EED1A5B
:403CC000A560019BB34200D21E0032000399206800F0A5FA0020A3689B1BA36023689E19266005B0F0BDC0467FFBFFFFF0B59FB0029005938B890F0016001B0610D50B69FC
:403D0000002B0DD1402100F0EBFA38603861002804D10C23029A01381360D8E040237B61002306AD6B6120336B761033AB7634002378002B03D1A31B049312D003E0252B36
:403D4000F9D00134F4E7A31B320039000298FFF76BFF431C00D1B4E06A69049B944663446B612378002B00D1ABE00122002352426A6002A95432521801342B60EB60AB604D
:403D80001370AB65534E21780522300000F03CFA002807D00123801B83402A68013413432B60EFE72B68DA0604D55322202102A8121811701A0704D553222B2102A81218D4
:403DC000117022782A2A03D0099B00200A210EE0059A111D12680591002A01DB099204E05242EA60022213432B6001340BE02278303A092A04D84B4301349B180120F6E7B8
:403E0000002800D0099323782E2B1ED163782A2B0AD1059B02341A1D1B680592002B01DA01235B42079310E000230A201A0001346B6021783039092904D8424301345218ED
:403E40000123F6E7002B00D00792234E21780322300000F0D9F9002806D04023801B83402A68013413432B60217806221B48661C297600F0C9F9002812D0194B002B06D1BE
:403E80000722059B073393430833059314E005AB00933A00134B2900029800E000BF07E005AB00933A000F4B2900029800F08AF80390039B013304D06B69039A9B186B6109
:403EC00035E7BB890B985B0601D5012040421FB0F0BDC0463A490000404900004449000000000000293C0000F7B5170001938A680B6900900C00934200DA130022003B608D
:403F000043321278002A01D001333B6023689B0602D53B6802333B60062523681D401ED0230043331B785A1E9341226892061CD53020E1184331087021005A1C45310978F3
:403F4000A2184332023311700FE022000123193201990098089EB047431C0ED00135E3683A689B1A9D42F0DBDAE72200019943320098089DA847431C02D10120404220E05B
:403F800006232068E1683A6803400025042B03D18D1AEB43DB171D40A3682269934201DD9B1AED180027BD420AD0220001231A3201990098089EB047431CDED00137F2E754
:403FC0000020FEBDF0B58BB006920A0043320793059004920A7E0C00109B6E2A00D1ABE011D8632A22D009D8002A00D1B5E0582A00D0C5E045310A70814A4FE0642A1DD0C2
:40400000692A1BD0BCE0732A00D1AAE009D86F2A29D0702A00D0B3E0202209680A43226037E0752A1FD0782A33D0A9E00E001A684236111D196013683370A4E021681A684D
:40404000080606D4490604D5111D19600023D55E02E0111D19601568002D3BDA2D23049A6D42137036E021681A68080606D4490604D51568111D1960ADB202E0111D19608E
:4040800015685F4B227E039308276F2A1DD00A271BE022007821453211705A4A19680392081D226818600D68100602D4500600D5ADB2D30702D520231A4322601027002D0C
:4040C00003D1202322689A4322602300002243331A7002E00A274A4B03936368A360002B09DB0422216891432160002D05D1049E002B11D07BE0002D79D0049E28003900D7
:40410000FFF72CFD039B013E5B5C280033703900FFF79EFC051EF1D1082F09D12368DB0706D563682269934202DC3023013E3370049B9B1B23612BE009681A68080607D4FC
:40414000490605D5111D19601368A28A1A8004E0111D1960136862691A600023049E236116E01A68111D1960166800216268300000F04AF8002801D0801B6060636803E0AE
:40418000260042363270012323610023049A1370079B09AA00932100069B0598FFF7A4FE431C02D10120404227E02369320006990598079DA847431CF4D0236800259B0716
:4041C0000FD4099BE068984217DA180015E022000123193206990598079EB047431CE1D00135E368099A9B1A9D42F0DBE9E72600039B42361B7833708EE70BB0F0BDC046F7
:404200004B4900005C490000C9B28218904204D003788B4202D00130F8E70020704710B5884202D98B18984201D3002305E09B1A013A08D3995C8154FAE7934203D0CC5C80
:40424000C4540133F9E710BD70B50500002944D00C1F2368002B00DAE418280000F0D8F81E4A13681100002B02D16360146031E0A3420DD92268A018834203D118685B681C
:404280008218226063600C6024E0A24203D813005A68002AF9D11E689819A0420BD12168711858181960824214D110685268411819605A600EE0A04202D90C232B6009E082
:4042C00021686018824203D1106852684118216062605C60280000F09CF870BDEC010020032370B5CD1C9D43083506000C2D01D20C2501E0002D01DBA94202D90C233360AF
:4043000048E0300000F084F8234B1C681A002100002913D00B685B1B0DD40B2B02D90B60CC181EE08C4202D1636813601AE04B6863600C0016E00C004968E9E7174C23688C
:40434000002B03D1300000F051F820602900300000F04CF8431C18D00323C41C9C43A0420DD12560300000F054F8200007220B30231D9043C31A0ED05A42E2500BE0211AA5
:40438000300000F033F8431CEBD10C233000336000F03FF8002070BDEC010020E8010020F8B506000C001500002904D11100FFF797FF040018E0002A03D1FFF745FF2C004C
:4043C00012E000F027F885420ED929003000FFF787FF071E07D021002A00FFF7F1FB21003000FFF731FF3C002000F8BD002370B5064C050008002360FCF7D0F8431C03D170
:404400002368002B00D02B6070BDC046E0030020704770470B1F1A68101F002A04DA891804390B68D01804387047000000000000000400001204000024040000360400003C
:40444000480400005C0400006E0400008004000094040000A8040000BC040000D0040000E40400000100020004000800100020004B65792070726573736564202E2E2E2E84
:404480002E2E2E2E20535725640D0A0000090B020F06040D070E0C050801030A2020202020202020202020202000000038470000400200201003002000000000CC010020C1
:4044C0000128000001000101C403002058470000500200201C03002000000000C80100200128000001000101C503002078470000600200202803002000000000C4010020EB
:404500000128000001000101C603002098470000700200203403002000000000C00100200128000001000101C7030020B8470000800200204003002000000000BC010020C6
:404540000128000001000101C8030020D8470000900200204C03002000000000B80100200128000001000101C9030020F8470000A00200205803002000000000B4010020A2
:404580000128000001000101CA03002018480000B00200206403002000000000B00100200128000001000101CB03002038480000C00200207003002000000000AC0100207C
:4045C0000128000001000101CC03002058480000D00200207C03002000000000A80100200128000001000101CD03002078480000E00200208803002000000000A401002058
:404600000128000001000101CE03002098480000F00200209403002000000000A00100200128000001000101CF030020B848000000030020A0030020000000009C01002032
:404640000128000001000101D0030020CC1E0C00C8001E1E14031E2008000000CC1E0C00C8001E1E14031E2008000000CC1E0C00C8001E1E14031E2008000000D2380C0000
:40468000FA001E1E19031E200800000070FA0C00E1001E1E19031E2008000000EE8D0C00BE0026261503262008000000441E0C00BE002C2C15032C200800000012590C000F
:4046C000E100282819032820080000002CE10C00A000121212031220080000009A1B0C000E011A1A1E031A200800000092290C0068011E1E28031E2008000000F4580C0055
:4047000068011818280318200800000074D60C000E0114141E0314200800000000010000000602400806044018060440000604400000F00014050F0000020240080204409A
:404740001802044000020440040204400F00000001000000000000000002024008020440180204400002044004020440F0000000020000000401030000020240080204402F
:40478000180204400002044004020440000F00000400000008020600000202400802044018020440000204400402044000F00000080000000C0309000002024008020440C6
:4047C00018020440000204400402044000000F001000000010040C0000020240080204401802044000020440040204400000F0002000000014050F00000202400802044042
:404800001802044000020440040204400000000F40000000180612000002024008020440180204400002044004020440000000F0800000001C071500000602400806044049
:404840001806044000060440040604400F00000001000000000000000006024008060440180604400006044004060440F00000000200000004010300000602400806044006
:40488000180604400006044004060440000F00000400000008020600000602400806044018060440000604400406044000000F001000000010040C00000302400803044074
:4048C0001803044000030440040304400F000000010000000000000042140000021400000C1400001614000026140000301400003A14000000000000D82D0000A02D000063
:40490000A82D0000B02D0000D82D0000BC2D0000C82D0000D42D000000009AACAEF53459C6475CEB68B2F21E8C8F1623227AB8D64AC8D064E43D7E914300232D302B2000EB
:40494000686C4C006566674546470030313233343536373839414243444546003031323334353637383961626364656600000000F8B5C046F8BC08BC9E467047D90100006F
:4049800015060000F8B5C046F8BC08BC9E467047B1010000A8490000B000002090000000A80200000000000000000000E8030020010000000000E02EC05D0000180000001A
:4049C00000366E010404040020000004020000000000000000000000000000000000000000000000000000000000000000000000384900000000000000000000000000005F
:404A0000000000000000000000000000000000000000000000000000000000000000000000000000000000000000000000000000D80000200000000000000000000000007E
:404A40000000000000000000000000000000000000000000000000000000000000000000000000000000000000000000000000000000000000000000000000000000000036
:404A800000000000000000000000000000000000000000000000000000000000000000000000000000000000000000000000000000000000000000000000000000000000F6
:404AC00000000000000000000000000000000000000000000000000000000000000000000000000000000000000000000000000000000000000000000000000000000000B6
:404B00000000000000000000000000000000000000000000000000000000000000000000000000000000000000000000000000000000000000000000000000000000000075
:020000040001F9
:0200000490303A
:020000007097F7
:0200000490402A
:4000000000000000000000000000000000000000000000000000000000000000000000000000000000000000000000000000000000000000000000000000000000000000C0
:0200000490501A
:0C0000000002255011B500012567824C5C
:0200000490600A
:0100000001FE
:00000001FF