:400000000010002011000000C1020000C102000010B502F0CFFE00F05BF9C04610B50F4C12232360182002F045FEFE2212020C4B1A600C4B0C4A1A60E02109010B4A1160E9
:400040000B4A1A6000220B4B1A6040320A4B1A6001320A4B1A601123236010BD30001040000301400000014040FF00800403014041FF008028000340080101400001014035
:4000800010B572B6EE221202114B1A60EE22114B1A606E3A104B1A60D8231B010F490B600F490A6040210F4A11600F4A136001220E4B1A6002320E4B1A6021320D4B1A6041
:4000C000183A0D4B1A60FFF7A9FF00F0F3F810BD00030240000402400001044008010440180104401802044008030440180304400004044008040440180404400000000018
:4001000010B5064C2378002B07D1054B002B02D0044800E000BF0123237010BD08010020000000003C310000084B10B5002B03D00749084800E000BF07480368002B00D1AD
:4001400010BD064B002BFBD09847F9E7000000000C0100203C3100008000002000000000F0B5474680B482B062B6012002F04CFCFA246400200002F01DFD002002F044FC67
:40018000200002F017FD02F059F9484A7C217C2002F0DAF900F0F4F86A460021082002F0EBF9002002F0D4F8030A6A4613705070012002F0CDF8030A6A469370D07002F0F2
:4001C0000FF9030A6A46137150710026002415E0270000250AE02900200002F0E3F8B31D6A46D0540136B6B20135ADB27B01304AD3181B8B9D42EED30134A4B2012CE7D9F3
:4002000000F038FC00F0F2FB0028FBD1F530FF3002F0D0FC00F0F2FA00239846FF26FF2706E03E000023984602E001239846FF2600F020FC00F0DAFB0028FBD100F0BAF8FA
:4002400000F00EFA00F0E0F9002824D0012002F0DBFB0025002409E0200000F0E5F9002802D00135EDB2E7B20134A4B2012CF3D9012D0AD1B742DBD0002FD2D1012002F01A
:40028000CFFB3E0000239846D2E7012DD0D94346002BCAD0CCE7FF2ECAD0002002F0B4FB002002F0BDFBFF26C2E7C04654010020543100001122014B1A607047C0020B40C7
:4002C00010B502F0FDFE03680C2B00D1FEE7FEE770B50F4E0F4D13E029686B68AC68002202E001C901C30432A242FAD1E868002202E0002102C304328242FAD11035013ECC
:40030000002EE9D102F0E2FEFFF72AFFFEE7C046010000009832000010B500230AE0032B03D89A000849505800E008489900084A885001331F2BF2D9FFF7A2FE80229205B5
:40034000044B1A6010BDC04600000000C10200000000002008ED00E010B5084B1B78002B06D100F00FF900F071F90122034B1A7000F04EF800F0DAFC10BDC046240100201B
:4003800010B5FFF7E9FF041E02D100F05BFC0400002C02D100F06EFB0400002C03D100F025FB0028FBD100F0E3F900F027FA200010BDC04670B5144E002400251FE01F2319
:4003C0002B4001229A4011006A091048043293001A580A40C3185B6813420ED0300000F051F804003100280000F0A2F8002C04D02100280001F090FF062420360135012D66
:40040000DDD9200070BDC046543100005401002070B500230CE013489A1D920000211150191D8A00012149421150821851600133002BF0D00C4C022310E06668A27E094B78
:400440005B1900211977012A06D12069002803D0717A228B02F069FE20342B005D1E002BEBD170BD540100205431000030B50B884A889C1A00250D818079844200DD0C81FC
:4004800030BDC046F0B583B00600846843680093837E01930025002712E0019A2100009800F0C2F9002805D0002F03D180231B062B431F0021000098FFF7D8FF0C34013522
:4004C000338B9D42E9D3380003B0F0BDF0B50A8B8D684F680B69012125E00C00044003D1BE883A7AB21802E0BA883E7A921B2E89B24201D3002200E00A00A24202D01E7842
:40050000013E1E70A24202D01C78002C07D188431043002A01D17A7A00E001221A7049000C3501336246541EA446002AD5D1F0BD70B504008A7E124B1B181D7F012A04D169
:400540002800FFF7C3FF050002E0002002F0F8FA0B4B1B191D7763091F2214401E3AA240002D06D1064906339B0058589043585005E0034906339B00585802435A5070BD34
:400580005401002070B51B4C7C220021200002F0CCFD194B238080235B006380174BA38084235B00E3830122E83BE254144B63841448230024330200543232CA32C332CABE
:4005C00032C312CA12C3010010311430040002230CE0A268238B04E00B78D37201310C320300581E002BF7D120342B005D1E002BEFD170BD5401002084230000B80B000089
:40060000D4560000403100000123002005E0931D9B0004495B58184313005A1E002BF6D17047C0465401002001280AD81F23034001229A40430906339B00034958581040A8
:4006400000E000207047C046540100200023024AD380024A13607047540100203001002070B5002500263D4B1B68032B06D102F0B4FB01223A4BDA8002F0B3FB384BDC88A0
:40068000E4B2062C23D8A300364AD3589F460122324B1A6001261AE00022304B1A60012615E0FFF76DFE00222C4B1A60012501260DE00222294B1A60012608E00022274B73
:4006C0001A60012603E00322244B1A600026002E0FD002F082FB224BDB88DBB29C4205D11F4AD188204B0B439BB2D38002F079FB00261A4B1B68012BB5D0022B2BD1184AEA
:400700007433D35CDBB27721525CD1B2012B22D85A0116488218128B91421CD2104A108980B27824125B92B2904214D05B010F4AD3189C684A0052189300E41802F04DFB6D
:40074000074B1A8992B278215A52228892B202315A5202F046FB280070BDC0463001002054010020103200000080FFFF543100007047C046FF231940062902D083180021A0
:4007800099715300195AC3185980C94399808218002393727047C04670B506000D00012305E0220029003000FFF7E4FF23005C1E002BF6D170BDC04610B54001054B1B1831
:4007C0004A00511888009A6894466044997EFFF7E3FF10BD5431000070B505004301064AD3181B8B04E021002800FFF7E5FF23005C1E002BF7D170BD5431000010B502237B
:4008000003E02000FFF7E8FF23005C1E002BF8D110BDC0469840504380235B009A1A51434018000A7047C046F0B54F4680B482B005000E000192002401234EE07B00F31862
:400840009A885988CB439BB29A4243D17B00985B814206D8431A9946F21900239372012202E00B1A99460022002A11D1EB7999450ED9F3199B7AAA7A934205D33A00019986
:400880003000FFF777FF1FE0F219013393721BE0AB79994504D9EB79994515D2002A13D1FF23019A1340062B0ED00902F31999469B79194308230122FFF7ACFF020A7B004D
:4008C000F3185A804B4698717B00F3185A88D2439A8001E0802424063B005F1E002BADD1200002B004BC9146F0BDC04670B504000D009F2808D91B4B994205D91A4928002E
:4009000002F0D8FB002921D09F2C09D9FF235B009D4205D91549280002F0CCFB002917D09F2C07D97E2D05D97F21280002F0C2FB00290FD09F2C0FD93E2D0FD93F21280061
:4009400002F0B8FB00290BD000200AE0042008E0032006E0022004E0002002E0002000E0012070BDFE030000FF030000FF01000010B54B1EDBB2032B01D8102300E000235E
:40098000002911D0002B11D0642253430100180002F00AFB002301E0013340000928FBD90A2804D9013B02E0002300E00023D8B210BDC04610B5094C2268094B13402360FA
:4009C000084A136801218B43136000F0F9FC2268054B1340236000F0B3FA10BD00040240FF0FFFFFA8020B40FFF8FFFF024BDB68802018407047C0465401002010B5114BB1
:400A0000DB68DB0312D4012812D81F23034001229A40110042090B4C043293001A590A40E3185B68134205D1012404E0112402E0012400E00024002C01D100F0D3FC2000D2
:400A400010BDC0465401002010B5084BDB68DB0307D4074B1B78012B05D100F059FC002003E0112001E00120404210BD540100203401002010B50F4BDB681B0618D400240C
:400A80000120404211E02000FFF7B8FF00280BD1002C03D10122084B5A7002E00022064B5A70FFF7D1FF04E00134012CEBD900E0112010BD540100203401002010B5040031
:400AC000144B1B78834223D0012B02D1FFF772FF07E0022B05D0042B03D0032B01D101F04FFC012C05D100F053FA0122094B1A700EE0022C0CD0042C0AD0032C05D101F086
:400B000049FC0322034B1A7002E00022014B1A7010BDC0463401002030B500210D4B16E0186802685C69A24302605C6822689D7F0720A840824310000622AA400243226000
:400B4000D86802689C69A2430260203301310129E6D930BDD031000010B51B4A93780133DBB293709078C0B2FFF748FF041E09D1154B9B78012B02D10022134B5A70FFF7C5
:400B800063FF1EE0104B9B78012B11D10F4B1A8901321A81DA6880218A43DA60DA681202120ADA60DA6804061443DC60002408E0064AD3681B021B0AD360D16803060B437D
:400BC000D360002CC9D110BD3401002054010020074A084B1A6001380002074B1860054B1B68002BFBDB054A024B1A607047C04640000040000001400003014040FF0080D7
:400C000070B504001F23034001229A40110042090B48043293001A580A40C3185B68134201D0002500E01125002D07D14621200000F0A0FC0500200001F05EFB280070BDFA
:400C40005401002070B50024002504E02000FFF7D7FF05430134012CF8D9280070BDC04670B5002510E06B01094A9E58002404E06001301800F090FB01346B01044AD318F6
:400C80001B7E9C42F4D30135012DECD970BDC046543100004001024B1818436898897047543100000203121A01238B40013B9A4205D90202101A834203D3052002E0062043
:400CC00000E00020C0B2704770B50E00FFF7E2FF05007188002200F021FA01002800FFF705FE041E04D168007188FFF7DBFF040021002800FFF73CFE0001C0B22043B073D6
:400D000070BDC04610B500240AE06301064AD31859682000FFF7D8FF200001F0EDFA0134012CF2D910BDC0465431000010B5FFF7E9FFFFF7F1FE0020FFF7C0FE002010BD9A
:400D400070B502F04AF8134A1168134B0B40136002F047F802F041F8104A13680C218B43136002F03EF802F038F80D4C23680D4D2B40D82212011343236002F032F8012073
:400D800002F004F802F029F823681D40256002F028F870BD00040240FF0BFDBF00040440080404403FF0FFFF034A044B11680B40000218431060704784000020FFFCFFFF34
:400DC000044A1168044B0B40E021C9000B4313607047C04600040240FFF0FFFFF0B5002318E00E4E5900C818C200B21855682868977D0724BC40A0432860C918C8008059C1
:400E00000168147D0F22A24091430522A2400A4302600133002BE4D0F0BDC046B831000001390843014B18607047C04600020B4010B5104B1B68702293431C0020230E4A55
:400E4000D15C0E4802F0B0F80D4B984204D820232343084A13600BE0084B984204D830232343044A136003E040232343014A136010BDC046840000205401002000366E0170
:400E8000001BB700034A044B1A60C1225204034B1A60704700008301C0010B40C4010B40074B1A687F210A40064802431A60064A13680B40802109040B4313607047C046E5
:400EC000C0010B4000008301C4010B40064A136806490B431360064A064B1A60C1225204054B1A607047C046A8020B400100001000008301C0010B40C4010B4070B50E00C3
:400F00001500438801249C40013CA3001B195800642102F049F8013083199C4200D22300B04201D8301A00E00020A84203D8AB4203D2062002E0062000E0002070BDC0460F
:400F400030B500221EE0114D51008818C3005C592068EB181D7D0F21A940884320605C6821689D7D0720A840814308000621A94001432160D86801685C7D0123A3409943A0
:400F800001600132002ADED030BDC046B8310000F8B5FFF765FEFFF7D3FEFFF71FFFFFF70FFFC02212032E4B1A602E4A11682E4E3143116000242D4B1C602D4B1C6011218A
:400FC0002C4B19602C4B1C602C4F3C602C4B1C602C4B9C461C602C4D2C602C4B1C602C4908682C4B0340C020C00103430B602A49086880235B01184308601020274B186087
:4010000088235B020B6063461C6013683343136080235B04224A13602249234A116002223A602249224A11602B60FFF72BFF2023204AD05CFFF7CCFD0020FFF7B5FEFFF782
:40104000F7FE1D4B1B681D4A13431D4A13600F221C4B1A601C4B1C60053A1C4B1A60F8BD04020B40A8020B4001000010F4000B40B4020B40C0020B4020030B4084010B404D
:4010800088020B4080020B4084020B4080010B4000040240FF0FFFFF94020B40A0020B40A4020B40410D000088010B400000030190020B4054010020840000200010008034
:4010C00000000B4000030B40F0010B4010030B4070B5050001F081FE0C490B687F26B3430B4A14782D19EA7A13430B6001F079FE01F073FE07490B68B343074A12681419F9
:40110000E27A13430B6001F06CFE70BDC0010B402C320000C4010B40D001002010B503001400012088400138002B02D0190001F03BFF053C012C00D84008002800D10130A8
:4011400010BDC04610B50C4B1B785B010B4AD3185B6899899B7B18045A1F012A02D8802292041043053BDBB2012B02D8490800D10131FFF755FE10BD360100205431000018
:4011800010B50300808959889A7BFFF7C7FF0004000C014B186010BD14030B4010B50A2001F0BAFC0121344B19600022334B1A603348344B18603448344B18600620344B55
:4011C00018600B30334B186033480468334B2340C024E40023430360314B19600631FF31304B1960304B1A600332304B1A60E123DB0100E0013B2B4A1268520701D4002B3A
:40120000F8D1002B02D10822284B1A6083225200244B1A600A2001F089FC0A2001F072FC01241C4B1C600023164A1360174A1360C022D200164B1A60FFF7C2FD5022184BDC
:401240001A600E4B1C600C4B1C60194A1368802149040B4313600222134B1A60E123DB0100E0013B134A1268520701D0002BF8D1114A0E4B1A6010BD80010B408C010B4033
:4012800001010100B0020B4010110000B4020B4088020B4080020B4000040240FFF0FFFFF0010B40F0000B40F8000B4040030B4000020B4000000B400103000010B5054A3F
:4012C000D36805490B43D3600A2001F05FFDFFF765FF10BD540100208000010070B50400857F067F01F079FD23681B680F22B24093431A000423B340134366683268072116
:40130000A9408A4332602268136001F06AFD70BD70B5134E3378134D5B01EB185868124C0023237033785B01EB1899682378DBB25A00D3189A008A180C4B1A60FFF7C8FEDE
:4013400033785B015B59207840011818084B1860FFF7C4FF074801F097FBFFF7AFFF70BD360100205431000037010020D0010020D4010020192F000010B54001044BC058B3
:4013800049014018034B1860FFF7A8FF10BDC04654310000D401002030B5047F857F41680B680722AA4093430B6001680B680F22A24093431A000523A34013430B6030BD67
:4013C00010B5064B1B78012B06D1054B1868FFF7E3FF0022014B1A7010BDC04638010020D401002070B5104E4301F3185D68C0B20E4C20700120FFF761FBFFF7E1FF2378A9
:401400005B019A590A4B1A600A4BDA687F218A43DA602178DA680A43DA602800FFF7B0FEFFF790FE70BDC0465431000036010020D40100205401002070B54301114AD31876
:401440005D68C9B2104C217099682378DBB25A00D3189A008A180D4B1A60FFF7C3FF2800FFF736FE20780A4B40011A68944660441860FFF733FF0122064B1A70064801F0AE
:4014800003FB70BD5431000037010020D0010020D401002038010020ED2E0000F0B5474680B482B007000E0090462B4A13785B012A49CB185B680193002333701078C0B27E
:4014C000274B1978C9B2FFF7B7FFFFF7E9FC00248025BC4202D23378AB4333706D0833782B4333700198FFF7F3FDFFF7E7FEE123DB0100E0013B1B4AD268120601D5002BD1
:40150000F8D1194B1B681C88002DE2D1124B1B785B01124A9858124B1B785B01C018134B1860FFF739FF0022114B1A70FFF7CEFC220039000198FFF7E1FC43461A78337862
:401540009A4201D242461370074B1B683278DA7202B004BC9046F0BD36010020543100003701002054010020D0010020D401002038010020F0B54F4680B484B00400894694
:401580004301364AD3185F68012003AB18707B88984001384843642101F006FD0190E2B22F4B1A702F4801F06FFA3E000B3600222D4B1A7000250AE003AA31000198FFF72D
:4015C0006DFF0543284A13780133DBB213706301224AD318DA7E244B1B78DBB29A42EBD803AB1B7801335B08FB7200221E4B1A7022E06301194AD3189E681B4B1B78DBB21B
:401600005A00D3189A00B618184B1E60F37AF87A83420AD31B1AD8B2F0724B4658436330642101F0C1FCF07201E00023F3720E4A13780133DBB213706301084AD318DA7E9D
:40164000094B1B78DBB29A42D3D80022064B1A70280004B004BC9146F0BDC0465431000036010020ED2E000037010020D001002070B588B004000D0020221049684601F064
:401680004BFD002013E0050B227813096B400F252B405B006E469B5B00014340180B42402A405200905B1B01584001340D00691E002DE8D180B208B070BDC04650320000E8
:4016C000F0B5002318E00E4E5900C818C200B21855682868977D0724BC40A0432860C918C80080590168147D0F22A24091430522A2400A4302600133002BE4D0F0BDC04635
:40170000B8310000044A1168044B0B40E021C9000B4313607047C04600040240FFF0FFFF30B500221EE0114D51008818C3005C592068EB181D7D0F21A940884320605C68CB
:4017400021689D7D0720A840814308000621A94001432160D86801685C7D0123A340994301600132002ADED030BDC046B8310000832252000A4B1A600A4B1B681B041B0C85
:40178000094A934200D913009BB2084A1380084AD168084B0B40D3600022074B1A607047F0000B40D0000B40FF0300003A010020540100207FFFFEFF88020B40013800052C
:4017C000000D014B1860704700020B40044B9B78062B01D1053B00E00723024A136070473A01002014030B407F231840034B1843034B18600022034B1A60704700008301A4
:40180000C0010B40C4010B4082B00023224A1360224A1360224A13600622224B1A600B32214B1A6080225204204B1A60204B9B78032B07D11F4A11681F4B0B40C021C900C6
:401840000B43136001221D4B1A601D4B0632FF321A601B6800221B4B1A6003321A4B1A609623DB000193019A03E0019B013B0193019A134B1B685B0701D4002AF5D1019B6D
:40188000002B02D10822104B1A600023034A1360034A136002B070478C010B40B0020B40B4020B4088020B4080020B4084020B403A01002000040240FFF0FFFFF0010B400C
:4018C000F0000B40F8000B4040030B4082B00190019A03E0019B013B0193019A044B1B7B5BB2002B01DA002AF4D1019B02B070475401002070B505000C0001F06EFA2A6812
:40190000136869698B43297F8C401C43146001F068FA70BD70B50600054D002405E031002800FFF7E7FF20350134012CF7D970BDD031000010B501F050FA0D4A11680D4B2D
:401940000B40136001F04DFA0B4B9B78032B0DD101F043FA064A1168084B0B40136001F040FAFFF7DDFE0020FFF7D4FF10BDC04600040240FF0FFFFF3A010020FFF8FFFF9A
:4019800070B505000C0001F028FA69680B68AD7F0722AA409343AC401C430C6001F021FA70BDC04670B50600054D002405E031002800FFF7E5FF20350134012CF7D970BD22
:4019C000D031000070B543011E4AD3185B695B0709D540018458890061180C8864011A4BE4188E7805E04001164BC458490164180126002523E0154B9B78032B08D1002154
:401A00002000FFF7BDFF05212000FFF773FF14E0042B08D100212000FFF76CFF06212000FFF7AEFF09E0052B07D100212000FFF7A7FF04212000FFF75DFF20340135AE42BF
:401A4000D9D870BD54310000D03100003A01002070B500250DE021002800FFF7B3FF013400E000246B01044AD3181B7E9C42F2D30135012DF5D970BD5431000010B50400B8
:401A80000F4BDB78834219D002280CD002D8012805D011E003280AD004280BD00CE00620FFF780FF08E00020FFF77CFF04E0FFF7CFFF01E0FFF7CCFF014BDC7010BDC0463B
:401AC0003A01002070B54301114AD3185B695B0709D540018458890061180C8864010D4BE4188E7805E04001094BC458490164180126002509E000212000FFF741FF042139
:401B00002000FFF7F7FE20340135AE42F3D870BD54310000D031000070B505000C0001F05CF9EA681368A9698B43697F8C401C43146001F056F970BD70B50600054D0024E4
:401B400005E031002800FFF7E7FF20350134012CF7D970BDD031000010B580225201114B1A60114B1B5C002B02D0012B0DD018E001F033F90D4A11680D4B0B408021C9013A
:401B80000B43136001F02DF90BE001F026F9074A1168084B0B408021C9000B43136001F020F910BDA0020B40B431000000040240FF0FFFFFFFF0FFFFF0B5474680B400244D
:401BC00024E001F00AF9144F66003319DD007D1969680B689846AA7D9446072263469A40434693430B6001F0FCF801F0F6F83619F300D9590B682A6993431A002D7D0423CD
:401C0000AB4013430B6001F0ECF80134002CD8D004BC9046F0BDC046B831000010B50120FEF7D6FF0322214B1A60214A214B1A60172001F0ABF8204A204B1A601D22204B18
:401C40001A6000231F4A13601F4A13601F4A13601F4A136001211F4A116001311E4A1160802252051D490A60802040031C4908601C490B60882040021B4908601B490B6082
:401C80001B490B60882149041A4801601A4801601A490A601A491B4A11601B4A13601B491B4A11601B4A136010BDC04600020B400010008500000B409B000004C4010B403A
:401CC00000030B40C0010B408C010B40C0020B4004020B4010030B4014030B4080020B4084020B4088020B4094020B40A0020B40A4020B40B0020B40B4020B40A8020B406F
:401D00004109000088010B4090020B400100008080010B40F8000B4070B50022364B1A60364B1B5C002B02D0012B35D063E001F054F8334C2368334D2B40236001F051F87E
:401D40002D4A1168304B0B40136001F046F823681D40256001F045F801F03FF82B4A136808218B43136001F03CF801F036F8284C2368284D2B40C02212011343236001F00C
:401D800030F80A2001F002F801F027F823681D40256001F026F82EE001F01FF8184C23681D4D2B40236001F01CF801F016F823681D40256001F015F801F00FF8134A1368BE
:401DC00004218B43136001F00CF801F006F8104C2368124D2B40C02252001343236001F000F80A2000F0D2FF00F0F7FF23681D40256000F0F6FF70BDA0020B40B4310000D0
:401E000000040240FF0FFFFFFFFFEFFF0004044008040440FFF1FFFFFFF0FFFF3FFEFFFF10B5FEF78DFF4E4B9B78032B03D1FFF747FCFFF767FC00234A4A13604A4A1360FF
:401E400011214A4A11604A4A13604A4A1360C021C900494A1160494A1360494A13600133484A13600F21484A1160484A136000F0B4FF474A1368802149010B43136000F0A7
:401E8000B0FF374B9B78062B0ED000F0A6FF414A1168414B0B40C021C9010B43136000F0A0FF10223D4B1A602D4B9B78032B03D188225202364B1A6080225205384B1A60B4
:401EC00080225204374B1A60374A384B1A600222284B1A60364A374B1A60214B9B78062B02D00120FEF774FE1D4B9B78032B06D1314B1968314A0A401A601A681A602E4BA8
:401F00001A6870218A431A60196830220A431A601B682B4A13432B4A1360172000F036FF0F4B9B78062B07D00A22274B1A60C0221203264B1A6005E00022234B1A60244A4F
:401F4000224B1A600020FFF74FFC054B9B78062B02D08020FFF732FC1E4800F095FD10BD3A010020F4000B40B4020B40C0020B4020030B4084010B4088020B4080020B40B2
:401F800084020B4080010B4000030B40F0010B4094020B4000040240FF0FFFFFA0020B40A8020B40A4020B40410D000088010B400000030190020B4088000020FFFCFFFF50
:401FC0000010008000000B4010030B4004020B400A000C007117000010B50400194B9B7883422DD0032B02D0052B03D004E0FFF7A1FC01E0FFF79EFC124B9C70072C1FD839
:40200000A400114B1B599F460220FFF737FD17E00120FFF733FD13E0FFF702FF0320FFF72DFD0DE0FFF7FCFE0420FFF727FD07E0FFF7F6FE0220FFF721FD01E0FFF7EEFDAC
:4020400010BDC0463A0100203032000000B583B0294B832252001A601B680A2000F066FD0A2000F04FFD0122244B1A60244B9B78032B06D1C022D200224B1A60FFF742FB3C
:4020800004E000231F4A13601C4A136050221E4B1A601B4B9B78062B08D11C4A1C4B1A6000231C4A13601C4A136002E00122184B1A60134B9B78032B03D10122174B1A601C
:4020C00002E00022154B1A600222154B1A609623DB000193019A03E0019B013B0193019A104B1B685B0701D0002AF5D10E4A0F4B1A6003B000BDC046F0000B4080020B40AC
:402100003A01002088020B40F0010B40010200008C010B40B0020B40B4020B4080010B40F8000B4000000B400103000040030B4010B50A2000F0F0FC0122074B1A6018207C
:4021400000F042FE054B9B78062B01D0FFF75CFBFFF77CFF10BDC04680010B403A010020F0B5474680B42B4B9B78052B02D10023984601E0012398460022264B1A80FFF719
:4021800025FB8026002431E0224B1B889BB2224A934200D8B4437608344300D101340B2C08D843465A1C8023D340032B02D99046402640242000FFF717FB80252F004346C2
:4021C000DF403800FFF7FAFA3900144800F0ECFE0004000C124B1860124BDA681543DD60FFF7A6FFE1208001FFF770FB002ECBD10D486043094900F0D7FE064B1B88584330
:40220000BB21434699404B08C01800F0CDFE04BC9046F0BD3A010020CB020000FF03000014030B40540100206A030000F8B506000F004301094AD318DD696D18FFF742FC86
:40224000FFF78EFF040039003000FFF7BBFBFF2C00D9FF242C702000F8BDC0465431000010B50C00FEF7B4FC2000FFF7BDFA064AD16880230B43D360FFF75AFFE1208001DE
:40228000FFF724FB10BDC0465401002070B50400FFF762FC17210620FFF7E2FF134B1B889BB2C0229200934206D95C211820FFF7D7FF5C25182601E0172506262000FFF7FA
:4022C0002BFD28007043094B1B885843182100F06BFE96231B015843054900F065FE2C346400044B1C19208170BDC0463A010020B70A00005401002010B5012808D84001EA
:40230000044B18184468A01C0E21FFF7B1F9208010BDC0465431000030B543091F2404400122A240094C04339B00E3185D6895435D60E36DDA0607D4220010242343D365B7
:402340006D23D0540133D15430BDC0465401002010B5040001280FD80320FEF7AFFB0620FFF73AFE8020C000FFF728FAFFF72EFA2000FFF78BFF01E08020C00510BDC046AA
:4023800010B50020FFF728FE0022014BDA7010BD3A01002010B50020FFF7BCFA0020FFF7CBFB10BD70B504000D00012810D843010A4AD3181B8B99420DD20320FEF77EFB47
:4023C0000320FFF709FE29002000FFF72FFF04E08020C00501E08020C00570BD5431000010B50320FEF76AFB0520FFF7F5FDFFF7E3FBFFF7B5FE0400FFF792F9FF2C00D9BA
:40240000FF246623014AD452200010BD5401002010B5072000F076FB10BDC04610B500F01DF810BD10B5044A1368802109060B431360FFF7EDFF10BD0000084010B5064B5A
:402440001B78002B04D1FFF7E9FF0122024B1A70FFF7E8FF10BDC0464001002010B580225202204B1A60204A204B1A60204B214A13600024204A14602049214A1160214AF6
:402480001360214B1C60072000F046FB0321072000F06AFB1D49072000F054FB1C4B1C601C4B1C605222FF321B4B1A601B4B1C601B4B1C601B4B1C60503AFF3A1A4B1A705A
:4024C0001A4B1C701A4B1C801A4B1C801A4B1C801A4B1C8006321A4B1A700132194B1A7010BDC0460000084000080040600008400701008000030840040308401000FC0066
:40250000100308400002084004020840A9250000C80E0840880E0840480F0840080F0840C80F0840880F0840E0010020E4010020DE010020D8010020DA010020F4010020D4
:40254000E5010020DC01002070B506000D00141E0BD0072000F0E0FA044B1C60044B1E80044B1D80072000F0CDFA70BDEC010020F0010020E201002070B506000D00141EE8
:402580000BD0072000F0C8FA044B1C60044B1E80044B1D80072000F0B5FA70BDE8010020E6010020F201002070B5C84B1B68002B00D09847C64B1B78002B02D1C54B1C88C2
:4025C00001E0C54B1C88C54B1D68C54B1E680223FF331D4239D0C34A13685B005B081360C14A137820218B431370117810230B43DBB21370BD4B1B68DB060CD4B54B1A8873
:40260000BB4B1B889A420CD0B74A117808230B43DBB2137005E0B44A117802230B43DBB21370B44A1168B44B0B4013600023B34A1360AE4A13600222B14B1A70A94A1368ED
:40264000802109060B431360BAE1F30602D50022AC4B1A600A23334200D1A3E0AA4B1B685B0759D5B30700D59CE0A84B1A68A44B1B78012B04D0002B21D0022B15D044E099
:40268000934B5B88002B0CD00121A14B1960904B59680919D2B20A7001345A88013A5A8036E002229A4B1A6032E00121984B1960D2B2874B5A800022914B1A7028E084492D
:4026C0004B881B021A430B899A421AD20121904B19607F4B5B899A4202D29B1A9BB200E000237B494B800120854B18700B78002B03D17F4B1A8014000AE0864B1A801400ED
:4027000006E00222824B1A6002E0002000F018FA0422814B1A6045E0764B1B689B0441D5B3071DD57D4B1B681F2119407C4B1B685B060BD5794803681F210A001A40016866
:4027400080231B0219404B424B41D11A694A1068694B03401360012014E00821012011E05B4B5988083989B259800829F5D8002008E0574B5B681B19644A1268D2B21A70A6
:40278000013401390029F4D1002808D1594A1368802109020B4313600022584B1A600C225D4B1A60B30700D4EAE0EB0629D54E4B1B789B0625D50023504A13604B4A13605B
:4027C000434B1A78002A02D1494B1B8801E0514B1B889C4201D1022300E00A232B40D34041490878034320208343DBB20B700221434B1970002A02D1364B1C8001E0364BF1
:402800001C806B0600D4B9E0404B1B685B080421414A1160434A127893420DD12C4B424A12685A60414A12881A81414A12885A8100221A70012312E03E4A127893420DD144
:40284000234B3D4A12685A603C4A12881A813C4A12885A8101221A70012300E00023002B0ED10122374B1A60374A1C4B1A60374A136810218B4313600222254B1A607DE041
:40288000194A117820230B43DBB21370104B1B78002B02D1164B1C8801E01E4B1C882C4B1B68DB065AD50A4A13891B1B5380294B1A68802149020A431A601968264A0A40C5
:4028C0001A601022094B1A604BE0C0464401002048010020DE010020DA010020400F0840000E084000000840E4010020880F0840D801002060000840FF5FFFFFC80F084030
:40290000E0010020880E0840CC0F0840400308406C000840F4010020C00F0840080308404C0F0840E5010020EC010020F0010020E2010020DC010020E8010020E601002000
:40294000F2010020800E0840FF0F0000480F08406400084004020840FFFFFEFF04221D4B1A6001221C4B1A601C491D4B19601D490868102303430B601B4B1A60184B1D6000
:402980001A4B1B685B071BD5194B5B88002B0BD0174B5A6812191278D2B216490A6001345A88013A5A8002E0FF22124B1A60124B1B681F221340082BE6D10F3A0F4B1A60E9
:4029C0000B4B1B78002B02D10D4B1C8001E00D4B1C8070BDC80F0840800E0840FF0F0000400F0840480F08406C000840000E0840480100204002084008020840800F08409B
:402A0000DE010020DA01002004490A68D2B204239A43800018401043086070470001044004490A68D2B208239A43C000184010430860704700010440014B98667047C046A5
:402A40000000002010B5040000F0C7F9044A1168044B0B40A4051C43146000F0C2F910BD08E400E0FFFF3FFF8022D200014B1A607047C04600E100E08022D200014B1A606E
:402A80007047C04680E100E010B50400FFF7F4FF2000FFF7D1FF0320FFF7D4FFFFF7E4FF10BDC0460C4B1B689B001C22134018330A4A1268920803210A40D34008490868ED
:402AC000084A02400A60084A944663441B78DBB2064A13607047C046080F03402800034000000740FFFFFFBFCDF1FF0F0C0F0340034B18688023DB05184000D00120704722
:402B0000000007401F2318401E3B8340014A13607047C04600E100E01F2318401E3B8340014A13607047C04680E100E01F2318401E3B8340014A13607047C04680E200E077
:402B400001BE704770B504000D000F2802D90020FFF7F6FF1034A40080239B059C4664442068256070BDC04670B504000E00032902D90020FFF7E4FF0F2C02D90020FFF734
:402B8000DFFF03252540ED00063500F026F9A408A400074B9C46644421680323AB4099430B003100A9401943216000F01AF970BD00E400E010B5040006E0084B586800F029
:402BC00003F9074B9C46644480231B029C42F4D8024B9868604300F0F7F810BD8C0000200080FFFF70B582B000F0DAF800284DD000F0F3F80500264B1A6892001C231A4071
:402C00001832244B1B689B0803210B40DA400021214B1960214C2168214B0B4021494A438021C9018C466244D20B013A5205520D1343A0225203134323601B4B1B6801930E
:402C4000302000F087F9194A13688021C9050B4313602668164B1E40002407E00120FFF7A9FF1034A30533430C4A1360EE2CF5D90120FFF79FFFFF239B051E43074B1E60B4
:402C8000019A094B1A60280000F0ABF802B070BD080F0340280003400C0F03400800074000F800C040420F003000104000000740FFFF3FC0F0B583B0040018280BD01C2857
:402CC00009D0202807D0242805D0282803D02C2801D0302849D100F080F80190FFF708FF002803D0FFF7DEFE012600E00026214A136807218B4313601F4BE3181B78DBB23D
:402D00001E4A13601E4A13688B4313601D4803687F22934319001C4BE3181B7813400B430360322000F050F8182C16D9114F3B680725AB431A0023001C3B9B082B40134369
:402D40003B60322000F040F83A68AA432300183B9B082C001C4014433C60012E01D1FFF741FF019800F03DF802E00020FFF7E8FE03B0F0BD080F0340CDF1FF0F0C0F034064
:402D8000100F0340180F0340B4F1FF0F10B5034B1B7B584300F018F810BDC0468C000020034B1B68002B01DA012000E00020704700000740014A024B1A6070476588EDAC8C
:402DC00038000340000000000230800803D001300238FCD1C046C0467047EFF3108072B6704780F310887047104B1B785B01104AD3185B680F4A11680A04120C5888012369
:402E00008340013B9A4206D20B4B1A680B4B1B785B00D15205E0084A1168084A127852008B520022064B1A607047C0463601002054310000D0000B40D00100202C320000F5
:402E400088020B4070B5224B1A78224952018A1850681B785B01CB181A7E013A1E4B1B78DBB29A421CD91C4C23780133DBB22370174D2B785B01CB1899682378DBB25A0022
:402E8000D3189A008A18154B1A60FEF721F92878C0B22178C9B2FEF76FFAFEF77FF916E000220D4B1A700E4AD1680E4B0B40D3600D4B1B78012B02D1FDF74EFE07E0084B4B
:402EC000DA6880218A43DA601A8901321A8170BD360100205431000037010020D001002054010020FFFFFEFF3501002010B583225200064B1A60FFF777FF054B1A89013246
:402F00001A81D968034A0A40DA6010BDF0000B40540100207FFFFEFF10B50A4B1B785B01094A9B58094A147864011C1983225200074B1A60FFF758FF2000FEF72DFAFFF7E2
:402F400081FF10BD360100205431000037010020F0000B4070B50400FFF73FFF0500102C05D8104A136803218B43136016E0202C07D80C490B6803229343023A13430B60FF
:402F80000CE0302C07D807490B6803229343013A13430B6002E00020FFF7D2FD2800FFF720FF70BD30001040002243088B4274D303098B425FD3030A8B4244D3030B8B4227
:402FC00028D3030C8B420DD3FF22090212BA030C8B4202D31212090265D0030B8B4219D300E0090AC30B8B4201D3CB03C01A5241830B8B4201D38B03C01A5241430B8B4264
:4030000001D34B03C01A5241030B8B4201D30B03C01A5241C30A8B4201D3CB02C01A5241830A8B4201D38B02C01A5241430A8B4201D34B02C01A5241030A8B4201D30B02A4
:40304000C01A5241CDD2C3098B4201D3CB01C01A524183098B4201D38B01C01A524143098B4201D34B01C01A524103098B4201D30B01C01A5241C3088B4201D3CB00C01A9B
:40308000524183088B4201D38B00C01A524143088B4201D34B00C01A5241411A00D20146524110467047FFE701B5002000F006F802BDC0460029F7D076E770477047C04671
:4030C000014B18687047C046000100200E4B70B500251E000D4CE41AA410A54204D0AB00F35898470135F8E700F0C4F8084B00251E00084CE41AA410A54204D0AB00F358BC
:4031000098470135F8E770BD80320000803200008032000088320000002310B59A4203D0CC5CC4540133F9E710BD03008218934202D019700133FAE770470000000000004D
:4031400000090B020F06040D070E0C050801030A20200000D03100007801002098010020000000002C0100200128000001000101C8010020F031000088010020A401002053
:4031800000000000280100200128000001000101C901002018180D0008071E1EC8031E2008000000281E0D0008072828C8031E2008000000000100000003024008030440BF
:4031C00018030440000304400F0000000000000000020240080204401802044000020440040204400000000F400000001806120000010240080104401801044000010440E9
:4032000004010440000000F0800000001C071500CE0600008E06000098060000A2060000B2060000BC060000C60600000000000040200000082000001020000018200000B9
:403240004020000024200000302000003C20000000009AACAEF53459C6475CEB68B2F21E8C8F1623227AB8D64AC8D064E43D7E9143000000F8B5C046F8BC08BC9E4670470D
:403280002901000019030000F8B5C046F8BC08BC9E46704701010000A83200008000002088000000F0000000000000002000000402000000010000000000E02EC05D0000BC
:4032C0001800000000366E0100000000000000000000000000000000000000000000000000000000000000007032000000000000000000000000000000000000000000006F
:4033000000000000000000000000000000000000000000000000000000000000000000000000000000000000A00000200000000000000000000000000000000000000000CD
:40334000000000000000000000000000000000000000000000000000000000000000000000000000000000000000000000000000000000000000000000000000000000004D
:40338000000000000000000000000000000000000000000000000000000000000000000000000000000000000000000000000000000000000000000000000000000000000D
:4033C00000000000000000000000000000000000000000000000000000000000000000000000000000000000000000000000000000000000000000000000000000000000CD
:40340000000000000000000000000000000000000000000000000000000000000000000000000000000000000000000000000000000000000000000000000000000000008C
:0200000490303A
:02000000553A6F
:0200000490402A
:200000000000000000000000000000000000000000000000000000000000000000000000E0
:0200000490501A
:0C0000000002190611A90001191666E3A0
:0200000490600A
:0100000001FE
:00000001FF